:10000000CCEF03F00000000000EF00F00000000063
:0A0010000000000000000000F3D71C
:10001C000F0E0C6E470E0D6E0D2EFED70C2EFCD750
:06002C00000000001200BC
:06003200000000001200B6
:0A003800210E0D6E0D2EFED71200F2
:0E004200026A016A006A086A036A000E120070
:100050003DBE02D0839E01D0838E3DBC02D0839CE6
:1000600001D0838C3DBA02D0839A01D0838A3DB8F7
:1000700002D0839801D0838816B002D0848401D046
:1000800084948482D6DF84923DB602D0839E01D0D0
:10009000838E3DB402D0839C01D0838C3DB202D0CC
:1000A000839A01D0838A3DB002D0839801D083889F
:1000B00016B002D0848401D084948482BADF849202
:0C00C00016A002D0ABDF01D0B7DF1200A9
:0800CC000AAE029E000E1200B4
:1000D4000B840BAE75EF00F0010E036E026A016A29
:0A00E400006A0A360232FF0E120015
:1000EE000B800BAE83EF00F0026A0AAEFF0E026EBB
:0C00FE00016E006E0A360232FF0E120086
:10010A000C6A0E6A0250D8A49EEF00F001C002F0F9
:10011A0000C001F0006A0E860250D8A49EEF00F0DB
:10012A0001C002F0016A0E960E880250D8B4B0EFF0
:10013A0000F00E50035ED8A4D8A0B5EF00F0D89016
:10014A0002BEBAEF00F0003601360236032EA5EFE2
:10015A0000F0B5EF00F0010E0C6E6EDFBDEF00F09F
:10016A00020E0C6EB2DFBDEF00F0040E0C6EA9DFBA
:02017A00120071
:10017C00086A096A100E0C6E0134083609360450F0
:10018C00085E0550D8A0053C095ED8B007D00450D5
:10019C0008260550D8B0053C0926D8900036013603
:0601AC000C2EEAD7120040
:0C01B2000E0E0D6E0D2EFED70000120088
:0C01BE0016903CC03DF045DF168012009A
:0801CA000B6A0B86FF0E120008
:1001D2000B820BAEF3EF00F003680268016800685F
:0801E2000A360232FF0E120082
:1001EA00969296949598959A959C959E84928494C5
:1001FA00839E839C839A83980CDF0BDF0ADF838AB2
:10020A008388848211DF849204DF84820DDF8492E2
:10021A0000DF848209DF8492FCDE8398848204DF13
:10022A008492F7DE848200DF8492839A838E8482AA
:10023A00FBDE8492EEDE839E83888482F5DE8492DE
:10024A0083988482F1DE8492E4DE8482EDDE8492F5
:10025A0083888482E9DE8492DCDE83988482E4DE09
:10026A008492838E838C838A83888482DDDE84925F
:06027A00D0DE1680120028
:10028000C26A151C006E0050C116070EC012C08E47
:1002900035C000F000360090003600900050C212C9
:1002A000C28087DFC282C2A201D0FDD7C4CF01F0D5
:0E02B000006AC3500012000E0112C29012002C
:1002BE000050086E0150006E016A026A036A0B6AF2
:1002CE000C6A960E036E0A6A00C001F008C000F0B8
:0802DE00086A026A13DF120036
:1002E6000FD0800E356E19D0C00E356E16D0940E16
:1002F600356E13D0D40E356E10D0800E356E0DD0FF
:100306003550010AEEE03550020AEEE03550030A98
:10031600EEE03550040AEEE0F0D73604006E3550B4
:10032600002600C035F000C03DF08FDE1690396A19
:1003360039503724E96E000E3820EA6EEE520BE093
:1003460039503724E96E000E3820EA6EEECF3CF0C5
:0A03560033DF392AEDD716801200BC
:10036000376A37503524E96E000E3620EA6EEE52B9
:100370000BE037503524E96E000E3620EA6EEECFE2
:0A0380003CF01DDF372AEDD7120014
:10038A000900F5CFE6FF0006FBE10106F9E11200DC
:10039A00396A050E395C0AE239503724E16E000EDB
:1003AA003820E26E200EE66E392AF3D73950372408
:1003BA00E16E000E3820E26EE66A390639503724BB
:1003CA003A6E000E38203B6E0A0E046E000E056E61
:1003DA0035C000F036C001F0CCDE08C000F009C01C
:1003EA0001F0300E00263AC0E1FF3BC0E2FF00C038
:1003FA00E6FF0A0E046E000E056E35C000F036C028
:10040A0001F0B7DE00C035F001C036F0000E011869
:10041A0002E1000E001801E102D03906CFD712001E
:10042A000450000A12E10550000A0FE10650000AC2
:10043A000CE10750000A09E1FF0E006EFF0E016E83
:10044A007F0E026EFF0E036EA4D0086A096A075077
:10045A00D8B4C0EF02F00350D8B4C4EF02F002508F
:10046A0006180A6E028E068E0E6A02C008F001C0D5
:10047A000CF000C00DF004500D5E0550D8A0053CEC
:10048A000C5E0650D8A0063C085E086A0C6A0D6A23
:10049A00D8A057EF02F0D890023201320032083267
:1004AA00010E0E6E0750035ED8A064EF02F07E0EB6
:1004BA000E240326D8B0C8EF02F06AEF02F07E0ECF
:1004CA000E240326D8A0CCEF02F0180E0B6E0D36C0
:1004DA000C3608360036013602360E360450005EF7
:1004EA000550D8A0053C015E0650D8A0063C025E25
:1004FA0006340E120EA085EF02F00D8090EF02F086
:10050A00045000260550D8B0053C01260650D8B044
:10051A00062802260D900B2E6CEF02F0B6EF02F0C1
:10052A00D8900036013602360E360450005E055069
:10053A00D8A0053C015E0650D8A0063C025E0634EF
:10054A000E10010B0D26D8B00C2AD8B4082AD8A44C
:10055A00B6EF02F008320C320D32032AD8B4C8EFD3
:10056A0002F00AAE089E0850026E0C50016E0D5041
:10057A00006ECEEF02F0010E23DECEEF02F0020E85
:10058A005BDDCEEF02F0040E1FDECEEF02F0080EA6
:04059A009CDD1200D2
:10059E00086A096A000E0762036454EF03F0025002
:1005AE0006180A6E075003267E0ED8A0E5EF02F05D
:1005BE00035ED8B058EF03F0E9EF02F0035ED8A067
:1005CE005CEF03F0028E068E02C00EF001C00BF03F
:1005DE0000C00DF000500402F4CF0CF001500502E3
:1005EE00F4CF00F0F3CF08F00402F3500C26F450D1
:1005FE000822000E00220D500502F3500C26F45076
:10060E000822000E002202500402F3500826F45075
:10061E00002202500502016A000E0122F35000264C
:10062E00F45001220D500602F3500826F450002219
:10063E00026A000E012202220B500602F35000261F
:10064E00F4500122000E02220E500602F350012633
:10065E00F450022202BE3CEF03F00836003601369B
:10066E0002360306D8B45CEF03F04FEF03F0D880E8
:10067E00800E08640030000E002201220222D8A053
:10068E004FEF03F0023201320032034A58EF03F00B
:10069E000AAE029E000E5EEF03F0010ECBDC5EEFA3
:1006AE0003F0020E8FDD5EEF03F0040E0CDD120080
:1006BE000B6A0C6A0A6A0350D8B4A9EF03F0028ED3
:1006CE008E0E035E03BE71EF03F0D8B471EF03F02C
:1006DE00ADEF03F0036C080E035CD8A088EF03F0B7
:1006EE00036E013602C001F0026A080E035CD8A048
:1006FE0088EF03F00136016A0350D8A4D89092EF28
:10070E0003F00350D8B492EF03F0D89002320132C6
:10071E00032E8CEF03F00BBC01A09FEF03F0D8A0CB
:10072E009FEF03F0012AD8B4022A02BEBCEF03F0F9
:10073E000AAEC1EF03F0021E011E012AD8B4022A2E
:10074E00C1EF03F0026A016AC1EF03F00B800BAE3A
:10075E00C5EF03F0026A0AAEC5EF03F0FF0E026E9C
:10076E00016E0A360232C5EF03F0010E0C6EB8DCD4
:10077E00C7EF03F0000E0C6EC7EF03F0FF0E0C6E0A
:0A078E000150006E0250016E1200CF
:100798009DEC04F02D6A2E6A2F6A306A22DD010E64
:1007A8003D6E52DC0C0E3D6E4FDC0D0EC16E356A8F
:1007B80063DD81DD00C031F001C032F002C033F0EA
:1007C80003C034F0000E046EC00E056E7F0E066E78
:1007D800880E076E31C000F032C001F033C002F05D
:1007E80034C003F01EDE000E046E000E056E480EC7
:1007F800066E850E076ECFDE00C023F001C024F020
:1008080002C025F003C026F031C000F032C001F06C
:1008180033C002F034C003F04EDF00C035F001C031
:1008280036F0170E376E000E386EB3DD23C000F0B9
:1008380024C001F025C002F026C003F03CDF00C050
:1008480035F001C036F01D0E376E000E386EA1DD92
:10085800010E356E010E366E170E376E000E386EAD
:100868003EDD1D0E356E000E366E76DD010E356EE0
:1008780003DD21DD00C031F001C032F002C033F0E9
:1008880003C034F0000E046EC00E056E7F0E066EB7
:10089800880E076E31C000F032C001F033C002F09C
:1008A80034C003F0BEDD000E046E000E056E480E67
:1008B800066E850E076E6FDE00C02DF001C02EF0AB
:1008C80002C02FF003C030F031C000F032C001F098
:1008D80033C002F034C003F0EEDE00C035F001C0D2
:1008E80036F0170E376E000E386E53DD2DC000F04F
:1008F8002EC001F02FC002F030C003F0DCDE00C0D3
:1009080035F001C036F0270E376E000E386E41DD27
:10091800020E356E010E366E170E376E000E386EEB
:10092800DEDC270E356E000E366E16DD3ED7FFD79D
:10093A0010EE15F0010E006E010E016E380EF66E05
:0E094A00090EF76E000EF86EC5EC01F01200FB
:01093800308E
:020000040030CA
:0E000000000C1F1EFF8381FF0FC00FE00F409A
:00000001FF
