:100000007DEF01F00000000000EF00F000000000B4
:0A0010000000000000000000F3D71C
:10001C000F0E0C6E470E0D6E0D2EFED70C2EFCD750
:06002C00000000001200BC
:06003200000000001200B6
:0A003800210E0D6E0D2EFED71200F2
:1000420025BE02D0839E01D0838E25BC02D0839C24
:1000520001D0838C25BA02D0839A01D0838A25B835
:1000620002D0839801D0838816B002D0848401D054
:1000720084948482DDDF849225B602D0839E01D0EF
:10008200838E25B402D0839C01D0838C25B202D00A
:10009200839A01D0838A25B002D0839801D08388C5
:1000A20016B002D0848401D084948482C1DF849209
:0C00B20016A002D0B2DF01D0BEDF1200A9
:0C00BE00169024C025F0BEDF1680120052
:0C00CA000E0E0D6E0D2EFED70000120071
:1000D600086A096A100E0C6E013408360936045097
:1000E600085E0550D8A0053C095ED8B007D004507C
:1000F60008260550D8B0053C0926D89000360136AA
:060106000C2EEAD71200E6
:10010C00969296949598959A959C959E84928494A3
:10011C00839E839C839A83987BDF7ADF79DF838A43
:10012C008388848280DF849273DF84827CDF849274
:10013C006FDF848278DF84926BDF8398848273DF35
:10014C00849266DF84826FDF8492839A838E8482AA
:10015C006ADF84925DDF839E8388848264DF84926D
:10016C008398848260DF849253DF84825CDF849284
:10017C008388848258DF84924BDF8398848253DF98
:10018C008492838E838C838A838884824CDF8492CE
:06019C003FDF1680120097
:1001A200C26A151C006E0050C116070EC012C08E26
:1001B2001DC000F000360090003600900050C212C0
:1001C200C28082DFC282C2A201D0FDD7C4CF01F0B9
:0E01D200006AC3500012000E0112C29012000B
:1001E0000900F5CFE6FF0006FBE10106F9E1120088
:1001F0000FD0800E1D6E19D0C00E1D6E16D0940E3D
:100200001D6E13D0D40E1D6E10D0800E1D6E0DD03D
:100210001D50010AEEE01D50020AEEE01D50030AD7
:10022000EEE01D50040AEEE0F0D71E04006E1D50F3
:10023000002600C01DF000C025F003DF1690216AE3
:1002400021501F24E96E000E2020EA6EEE520BE0D2
:1002500021501F24E96E000E2020EA6EEECF24F01C
:0A0260002EDF212AEDD716801200D0
:10026A00216A050E215C0AE221501F24E16E000E6C
:10027A002020E26E200EE66E212AF3D721501F2499
:10028A00E16E000E2020E26EE66A210621501F244C
:10029A00226E000E2020236E0A0E046E000E056EDA
:1002AA001DC000F01EC001F011DF08C000F009C037
:1002BA0001F0300E002622C0E1FF23C0E2FF00C099
:1002CA00E6FF0A0E046E000E056E1DC000F01EC089
:1002DA0001F0FCDE00C01DF001C01EF0000E011886
:1002EA0002E1000E001801E102D02106CFD7120068
:1002FA009DEC01F006DF0C0E256E9EDE0D0EC16E22
:10030A00010E1D6E49DF00C01DF001C01EF0170E60
:10031A001F6E000E206EA4DF010E1D6E010E1E6EF2
:0E032A00170E1F6E000E206E5EDFE8D7FFD7A5
:10033A0010EE15F0010E006E010E016E380EF66E0B
:0E034A00030EF76E000EF86EF0EC00F01200DD
:010338003094
:020000040030CA
:0E000000000C1F1EFF8181FF0FC00FE00F409C
:00000001FF
