:100000007DEF01F00000000000EF00F000000000B4
:0A0010000000000000000000F3D71C
:06001C00000000001200CC
:100022000F0E0C6E470E0D6E0D2EFED70C2EFCD74A
:06003200000000001200B6
:0A003800210E0D6E0D2EFED71200F2
:1000420039BE02D0839E01D0838E39BC02D0839CFC
:1000520001D0838C39BA02D0839A01D0838A39B80D
:1000620002D0839801D0838824B002D0848401D046
:1000720084948482D2DF849239B602D0839E01D0E6
:10008200838E39B402D0839C01D0838C39B202D0E2
:10009200839A01D0838A39B002D0839801D08388B1
:1000A20024B002D0848401D084948482B6DF849206
:0C00B20024A002D0B5DF01D0BEDF120098
:0C00BE000E0E0D6E0D2EFED7000012007D
:0C00CA00249038C039F0B8DF2480120008
:1000D600086A096A100E0C6E013408360936045097
:1000E600085E0550D8A0053C095ED8B007D004507C
:1000F60008260550D8B0053C0926D89000360136AA
:060106000C2EEAD71200E6
:10010C00969296949598959A959C959E84928494A3
:10011C00839E839C839A83987EDF7DDF7CDF838A3A
:10012C008388848275DF849276DF848271DF849287
:10013C0072DF84826DDF84926EDF8398848268DF45
:10014C00849269DF848264DF8492839A838E8482B2
:10015C005FDF849260DF839E8388848259DF849280
:10016C008398848255DF849256DF848251DF849297
:10017C00838884824DDF84924EDF8398848248DFAB
:10018C008492838E838C838A8388848241DF8492D9
:06019C0042DF2480120086
:1001A2000900F5CFE6FF0006FBE10106F9E11200C6
:1001B200C26A231C006E0050C116070EC012C08E08
:1001C20031C000F000360090003600900050C2129C
:1001D200C28074DFC282C2A201D0FDD7C4CF01F0B7
:0E01E200006AC3500012000E0112C2901200FB
:1001F0000FD0800E316E19D0C00E316E16D0940E15
:10020000316E13D0D40E316E10D0800E316E0DD001
:100210003150010AEEE03150020AEEE03150030A9B
:10022000EEE03150040AEEE0F0D73204006E3150B7
:10023000002600C031F000C039F003DF2490356A99
:1002400035503324E96E000E3420EA6EEE520BE096
:1002500035503324E96E000E3420EA6EEECF38F0CC
:0A02600034DF352AEDD724801200A8
:10026A00356A050E355C0AE235503324E16E000E1C
:10027A003420E26E200EE66E352AF3D73550332449
:10028A00E16E000E3420E26EE66A350635503324FC
:10029A00366E000E3420376E0A0E046E000E056E9E
:1002AA0031C000F032C001F011DF08C000F009C00F
:1002BA0001F0300E002636C0E1FF37C0E2FF00C071
:1002CA00E6FF0A0E046E000E056E31C000F032C061
:1002DA0001F0FCDE00C031F001C032F0000E01185E
:1002EA0002E1000E001801E102D03506CFD7120054
:1002FA00CCEC01F006DF0C0E396E9EDE0E0EC16EDE
:10030A00316A52DF00C031F001C032F0250E336E7F
:10031A00000E346EA5DF010E316E010E326E1C0E18
:10032A00336E000E346E5FDF010E316E080E326ED0
:10033A00250E336E000E346E56DF0D0EC16E010EA1
:10034A00316E32DF00C031F001C032F02B0E336E55
:10035A00000E346E85DF020E316E010E326E150EFE
:10036A00336E000E346E3FDF020E316E080E326EAF
:0E037A002B0E336E000E346E36DFC0D7FFD769
:1003980010EE15F00F0E006E010E016E880EF66E4F
:0E03A800030EF76E000EF86ED1EC00F012009E
:07038800506F7420323A00AF
:07038F00506F7420313A00A9
:010396003036
:020000040030CA
:0E000000000C1F1EFF8181FF0FC00FE00F409C
:00000001FF
