:1000000037EF01F00000000000EF00F000000000FA
:0A0010000000000000000000F3D71C
:06001C00000000001200CC
:100022000F0E0C6E470E0D6E0D2EFED70C2EFCD74A
:06003200000000001200B6
:0A003800210E0D6E0D2EFED71200F2
:1000420022BE02D0839E01D0838E22BC02D0839C2A
:1000520001D0838C22BA02D0839A01D0838A22B83B
:1000620002D0839801D0838817B002D0848401D053
:1000720084948482D2DF849222B602D0839E01D0FD
:10008200838E22B402D0839C01D0838C22B202D010
:10009200839A01D0838A22B002D0839801D08388C8
:1000A20017B002D0848401D084948482B6DF849213
:0C00B20017A002D0B5DF01D0BEDF1200A5
:0C00BE00179021C022F0BEDF1780120056
:1000CA00020E0C6E490E0D6E0D2EFED70C2EFCD7AD
:0600DA000000000012000E
:1000E000969296949598959A959C959E84928494D0
:1000F000839E839C839A839894DF93DF92DF838A25
:10010000838884828BDF84928CDF848287DF849271
:1001100088DF848283DF849284DF839884827EDF19
:1001200084927FDF84827ADF8492839A838E8482B2
:1001300075DF849276DF839E838884826FDF84926A
:10014000839884826BDF84926CDF848267DF849281
:100150008388848263DF849264DF839884825EDF95
:100160008492838E838C838A8388848257DF8492EF
:0601700058DF17801200A9
:100176000900F5CFE6FF0006FBE10106F9E11200F2
:100186000FD0800E1A6E19D0C00E1A6E16D0940EAD
:100196001A6E13D0D40E1A6E10D0800E1A6E0DD0B1
:1001A6001A50010AEEE01A50020AEEE01A50030A4B
:1001B600EEE01A50040AEEE0F0D71B04006E1A5067
:1001C600002600C01AF000C022F038DF17901E6A21
:1001D6001E501C24E96E000E1D20EA6EEE520BE046
:1001E6001E501C24E96E000E1D20EA6EEECF21F093
:0A01F60063DF1E2AEDD71780120008
:10020000206A1CC001F0010E006E015004E00036AF
:100210000090FF0FFBD700C01FF01AC0E9FF1BC002
:10022000EAFF0050EE14016E0152010ED8A4000E38
:10023000006E1E50001A18E01D50000804E245DF51
:1002400044DF1D06F9D71AC0E9FF1BC0EAFF1F50A3
:10025000EE14016E0152010ED8A4000E006E1E5065
:0E026000001A02E0FF0E206E20C000F0120017
:10026E00350E156E166A186A196AFF0E936E040E15
:10027E00816E2FDF810E1A6E0F0E1B6E050E1C6E19
:10028E00010E1D6E1E6AB5DF0050FF0A18E1010E49
:10029E001A6E18C01BF0150E1C6E000E1D6E6CDF54
:1002AE00150E0B6E4B0E0C6EBE0E0D6E0D2EFED77A
:1002BE000C2EFCD70B2EFAD70000184A192ADAD7C3
:0202CE00FFD758
:020000040030CA
:0E000000000C1F1EFF8381FF0FC00FE00F409A
:00000001FF
