:10000000F5EF00F00000000000EF00F0000000003D
:0A0010000000000000000000F3D71C
:06001C00000000001200CC
:100022000F0E0C6E470E0D6E0D2EFED70C2EFCD74A
:06003200000000001200B6
:0A003800210E0D6E0D2EFED71200F2
:1000420032BE02D0839E01D0838E32BC02D0839C0A
:1000520001D0838C32BA02D0839A01D0838A32B81B
:1000620002D0839801D083882BB002D0848401D03F
:1000720084948482D2DF849232B602D0839E01D0ED
:10008200838E32B402D0839C01D0838C32B202D0F0
:10009200839A01D0838A32B002D0839801D08388B8
:1000A2002BB002D0848401D084948482B6DF8492FF
:0C00B2002BA002D0B5DF01D0BEDF120091
:0C00BE002B9031C032F0BEDF2B8012000E
:1000CA000900F5CFE6FF0006FBE10106F9E112009F
:1000DA00969296949598959A959C959E84928494D6
:1000EA00839E839C839A839897DF96DF95DF838A22
:1000FA00838884828EDF84928FDF84828ADF84926F
:10010A008BDF848286DF849287DF8398848281DF13
:10011A00849282DF84827DDF8492839A838E8482B2
:10012A0078DF849279DF839E8388848272DF849267
:10013A00839884826EDF84926FDF84826ADF84927E
:10014A008388848266DF849267DF8398848261DF92
:10015A008492838E838C838A838884825ADF8492F2
:06016A005BDF2B80120098
:100170000FD0800E2C6E19D0C00E2C6E16D0940E9F
:100180002C6E13D0D40E2C6E10D0800E2C6E0DD091
:100190002C50010AEEE02C50020AEEE02C50030A2B
:1001A000EEE02C50040AEEE0F0D72D04006E2C5047
:1001B000002600C02CF000C032F043DF2B90306AE4
:1001C00030502E24E96E000E2F20EA6EEE520BE026
:1001D00030502E24E96E000E2F20EA6EEECF31F063
:0A01E0006EDF302AEDD72B801200ED
:1001EA0016EC01F075DF010E2C6E040E2D6E150E45
:1001FA002E6E000E2F6EB7DF020E2C6E040E2D6EC1
:0C020A00200E2E6E000E2F6EAEDFFFD710
:10022C0010EE15F0160E006E010E016E160EF66E27
:0E023C00020EF76E000EF86E65EC00F0120078
:0B021600456E67656E686172696100EB
:0B022100436F6D70757461E7E36F00C0
:020000040030CA
:0E000000000C1F1EFF8381FF0FC00FE00F409A
:00000001FF
