:1000000050EF00F00000000000EF00F000000000E2
:0A0010000000000000000000F3D71C
:10001C00020E0C6E490E0D6E0D2EFED70C2EFCD75B
:06002C00000000001200BC
:10003200216A1DC001F0010E006E015004E000367D
:100042000090FF0FFBD700C020F01BC0E9FF1CC0CF
:10005200EAFF0050EE14016E0152010ED8A4000E08
:10006200006E1F50001A18E01E50000804E2D5DF8F
:10007200D4DF1E06F9D71BC0E9FF1CC0EAFF2050DF
:10008200EE14016E0152010ED8A4000E006E1F5034
:0E009200001A02E0FF0E216E21C000F01200E5
:1000A000800E156E000E166E400E176E000E186E46
:1000B000010E196E000E1A6E956A100E936E936AF9
:1000C000810E1B6E0F0E1C6E080E1D6E010E1E6E35
:1000D0001F6AAFDF0050FF0A26E115C083FF19C079
:1000E00081FF060E0B6E130E0C6EAD0E0D6E0D2EF7
:1000F000FED70C2EFCD70B2EFAD7000000001750AD
:1001000015261850162218321732189E18BC188E51
:1001100018AE03D002E3174A182A193619901A3676
:08012000194A1A2ACDD7FFD7B6
:020000040030CA
:0E000000000C1F1EFF8381FF0FC00FE00F409A
:00000001FF
