:1000000050EF00F00000000000EF00F000000000E2
:0A0010000000000000000000F3D71C
:10001C00020E0C6E490E0D6E0D2EFED70C2EFCD75B
:06002C00000000001200BC
:100032001D6A19C001F0010E006E015004E0003685
:100042000090FF0FFBD700C01CF017C0E9FF18C0DB
:10005200EAFF0050EE14016E0152010ED8A4000E08
:10006200006E1B50001A18E01A50000804E2D5DF97
:10007200D4DF1A06F9D717C0E9FF18C0EAFF1C50EF
:10008200EE14016E0152010ED8A4000E006E1B5038
:0E009200001A02E0FF0E1D6E1DC000F01200ED
:1000A000010E156E000E166EFF0E936E956A816A34
:1000B000836A810E176E0F0E186E050E196E010EF3
:1000C0001A6E1B6AB6DF0050FF0A15E115C083FFE8
:1000D000153615901636154A162A060E0B6E130E97
:1000E0000C6EAD0E0D6E0D2EFED70C2EFCD70B2E0A
:0A00F000FAD700000000DDD7FFD7AB
:020000040030CA
:0E000000000C1F1EFF8181FF0FC00FE00F409C
:00000001FF
