:100000009BEF01F00000000000EF00F00000000096
:0A0010000000000000000000F3D71C
:0A001C00210E0D6E0D2EFED712000E
:100026000F0E0C6E470E0D6E0D2EFED70C2EFCD746
:06003600000000001200B2
:06003C00000000001200AC
:10004200000160BF02D0839E01D0838E60BD02D0CA
:10005200839C01D0838C60BB02D0839A01D0838AB7
:1000620060B902D0839801D083884FB002D08484D3
:1000720001D084948482E1DF849260B702D0839EAF
:1000820001D0838E60B502D0839C01D0838C60B393
:1000920002D0839A01D0838A60B102D0839801D0C2
:1000A20083884FB002D0848401D084948482C5DFD7
:0E00B20084924FA002D0B6DF01D0AFDF120063
:0C00C0004F905FC060F0BDDF4F80120069
:1000CC00020E0C6E490E0D6E0D2EFED70C2EFCD7AB
:0600DC000000000012000C
:1000E200086A096A100E0C6E01340836093604508B
:1000F200085E0550D8A0053C095ED8B007D0045070
:1001020008260550D8B0053C0926D890003601369D
:060112000C2EEAD71200DA
:10011800969296949598959A959C959E8492849497
:10012800839E839C839A83987ADF79DF78DF838A3A
:10013800838884827FDF849272DF84827BDF84926B
:100148006EDF848277DF84926ADF8398848272DF2D
:10015800849265DF84826EDF8492839A838E8482A0
:1001680069DF84925CDF839E8388848263DF849264
:10017800839884825FDF849252DF84825BDF84927B
:100188008388848257DF84924ADF8398848252DF8F
:100198008492838E838C838A838884824BDF8492C3
:0601A8003EDF4F80120053
:1001AE000900F5CFE6FF0006FBE10106F9E11200BA
:1001BE000FD0800E586E19D0C00E586E16D0940EF9
:1001CE00586E13D0D40E586E10D0800E586E0DD0BF
:1001DE005850010AEEE05850020AEEE05850030A59
:1001EE00EEE05850040AEEE0F0D75904006E585075
:1001FE00002600C058F000C060F01CDF4F905C6A13
:10020E005C505A24E96E000E5B20EA6EEE520BE053
:10021E005C505A24E96E000E5B20EA6EEECF5FF062
:0A022E0048DF5C2AEDD74F80120074
:100238005C6A050E5C5C0AE25C505A24E16E000EB2
:100248005B20E26E200EE66E5C2AF3D75C505A24DF
:10025800E16E000E5B20E26EE66A5C065C505A2492
:100268005D6E000E5B205E6E0A0E046E000E056E5B
:1002780058C000F059C001F030DF08C000F009C0D4
:1002880001F0300E00265DC0E1FF5EC0E2FF00C055
:10029800E6FF0A0E046E000E056E58C000F059C045
:1002A80001F01BDF00C058F001C059F0000E011822
:1002B80002E1000E001801E102D05C06CFD712005F
:1002C8005E6A5AC001F0010E006E015004E000366B
:1002D8000090FF0FFBD700C05DF058C0E9FF59C080
:1002E800EAFF0050EE14016E0152010ED8A4000E70
:1002F800006E5C50001A18E05B50000804E2E2DE71
:10030800E1DE5B06F9D758C0E9FF59C0EAFF5D5046
:10031800EE14016E0152010ED8A4000E006E5C505E
:0E032800001A02E0FF0E5E6E5EC000F01200D2
:1003360038EC02F0010E566E000E576E030E936EE9
:10034600E8DE0C0E0001606F79DEC20ED76EF70E86
:10035600D66E860ED56E010E586E010E596E320E91
:100366005A6E000E5B6E28DF020E586E010E596E35
:10037600210E5A6E000E5B6E1FDF836A810E586E69
:100386000F0E596E5A6A010E5B6E5C6A9ADF005256
:100396004DE0936A816AF294010E0001606F4EDEB1
:1003A600010E586E010E596E150E5A6E000E5B6EDA
:1003B60003DF020E586E010E596E430E5A6E000E82
:1003C6005B6EFADE800E5718006E800E005C02E14E
:1003D6000F0E565C2BE2956AF2A427D0811E831E6F
:1003E600F294C20ED76EF70ED66E564A572A56C0EC
:1003F60058F057C059F059325832599E59BC598E47
:1004060059AE03D002E3584A592A500E5A6E000ECE
:100416005B6E0FDF010E586E0C0E596E500E5A6E43
:10042600000E5B6EC9DEFF0E836ECCD794D7FFD766
:1004700010EE15F03A0E006E010E016E360EF66E9D
:0E048000040EF76E000EF86ED7EC00F01200BE
:0C04360056657A6573204C4544323A004C
:10044200417065727465206230206F7520623120C0
:0104520000A9
:1004530053656A612062656D2076696E646F212041
:010463000098
:0C04640056657A6573204C4544313A001F
:020000040030CA
:0E000000000C1F1EFF8181FF0FC00FE00F409C
:00000001FF
