:100000000EEF00F00000000000EF00F00000000024
:0A0010000000000000000000F3D71C
:10001C00956A926A040E806E3F0E836E0B0E0B6E09
:10002C00260E0C6E5D0E0D6E0D2EFED70C2EFCD713
:10003C000B2EFAD700000000080E806E060E836EA1
:10004C000B0E0B6E260E0C6E5D0E0D6E0D2EFED76E
:10005C000C2EFCD70B2EFAD700000000100E806E71
:10006C005B0E836E0B0E0B6E260E0C6E5D0E0D6E04
:10007C000D2EFED70C2EFCD70B2EFAD7000000004D
:10008C00200E806E4F0E836E0B0E0B6E260E0C6EBA
:10009C005D0E0D6E0D2EFED70C2EFCD70B2EFAD747
:1000AC0000000000040E806E660E836E0B0E0B6E4D
:1000BC00260E0C6E5D0E0D6E0D2EFED70C2EFCD783
:1000CC000B2EFAD700000000080E806E6D0E836EAA
:1000DC000B0E0B6E260E0C6E5D0E0D6E0D2EFED7DE
:1000EC000C2EFCD70B2EFAD700000000100E806EE1
:1000FC007D0E836E0B0E0B6E260E0C6E5D0E0D6E52
:10010C000D2EFED70C2EFCD70B2EFAD700000000BC
:10011C00200E806E070E836E0B0E0B6E260E0C6E71
:10012C005D0E0D6E0D2EFED70C2EFCD70B2EFAD7B6
:10013C0000000000040E806E7F0E836E0B0E0B6EA3
:10014C00260E0C6E5D0E0D6E0D2EFED70C2EFCD7F2
:10015C000B2EFAD700000000080E806E6F0E836E17
:10016C000B0E0B6E260E0C6E5D0E0D6E0D2EFED74D
:10017C000C2EFCD70B2EFAD700000000040E806E5C
:10018C003F0E836E080E806E3F0E836EF7D7FFD73F
:020000040030CA
:0E000000000C1F1EFF8381FF0FC00FE00F409A
:00000001FF
