:100000000EEF00F00000000000EF00F00000000024
:0A0010000000000000000000F3D71C
:10001C00156A166A020E936E926A956A0C0E806EC1
:10002C00156A166A800E1618006E800E005C02E1CE
:10003C000A0E155C1DE2040E806E060E836E340EE5
:10004C000C6EF10E0D6E0D2EFED70C2EFCD7000093
:10005C000000080E806E3F0E836E4E0E0C6EEB0E83
:10006C000D6E0D2EFED70C2EFCD7154A162ADAD79C
:10007C000C0E806E060E836E060E0B6E130E0C6E3F
:10008C00AD0E0D6E0D2EFED70C2EFCD70B2EFAD707
:10009C0000000000156A166A800E1618006E800E9D
:1000AC00005C02E10A0E155C1DE2040E806E060E69
:1000BC00836E340E0C6EF10E0D6E0D2EFED70C2EC3
:1000CC00FCD700000000080E806E5B0E836E4E0E97
:1000DC000C6EEB0E0D6E0D2EFED70C2EFCD7154AAA
:0800EC00162ADAD79DD7FFD7D1
:020000040030CA
:0E000000000C1F1EFF8381FF0FC00FE00F409A
:00000001FF
