:100000009AEF01F00000000000EF00F00000000097
:0A0010000000000000000000F3D71C
:0A001C00210E0D6E0D2EFED712000E
:100026000F0E0C6E470E0D6E0D2EFED70C2EFCD746
:06003600000000001200B2
:06003C00000000001200AC
:100042005EBE02D0839E01D0838E5EBC02D0839CB2
:1000520001D0838C5EBA02D0839A01D0838A5EB8C3
:1000620002D0839801D083884DB002D0848401D01D
:1000720084948482E2DF84925EB602D0839E01D0B1
:10008200838E5EB402D0839C01D0838C5EB202D098
:10009200839A01D0838A5EB002D0839801D083888C
:1000A2004DB002D0848401D084948482C6DF8492CD
:0C00B2004DA002D0B7DF01D0B0DF12007B
:0C00BE004D905DC05EF0BEDF4D80120072
:1000CA00020E0C6E490E0D6E0D2EFED70C2EFCD7AD
:0600DA000000000012000E
:1000E000086A096A100E0C6E01340836093604508D
:1000F000085E0550D8A0053C095ED8B007D0045072
:1001000008260550D8B0053C0926D890003601369F
:060110000C2EEAD71200DC
:10011600969296949598959A959C959E8492849499
:10012600839E839C839A83987BDF7ADF79DF838A39
:100136008388848280DF849273DF84827CDF84926A
:100146006FDF848278DF84926BDF8398848273DF2B
:10015600849266DF84826FDF8492839A838E8482A0
:100166006ADF84925DDF839E8388848264DF849263
:100176008398848260DF849253DF84825CDF84927A
:100186008388848258DF84924BDF8398848253DF8E
:100196008492838E838C838A838884824CDF8492C4
:0601A6003FDF4D80120056
:1001AC000900F5CFE6FF0006FBE10106F9E11200BC
:1001BC000FD0800E566E19D0C00E566E16D0940EFF
:1001CC00566E13D0D40E566E10D0800E566E0DD0C7
:1001DC005650010AEEE05650020AEEE05650030A61
:1001EC00EEE05650040AEEE0F0D75704006E56507D
:1001FC00002600C056F000C05EF01DDF4D905A6A1C
:10020C005A505824E96E000E5920EA6EEE520BE05B
:10021C005A505824E96E000E5920EA6EEECF5DF06C
:0A022C0048DF5A2AEDD74D8012007A
:100236005A6A050E5A5C0AE25A505824E16E000EBC
:100246005920E26E200EE66E5A2AF3D75A505824E9
:10025600E16E000E5920E26EE66A5A065A5058249C
:100266005B6E000E59205C6E0A0E046E000E056E63
:1002760056C000F057C001F030DF08C000F009C0DA
:1002860001F0300E00265BC0E1FF5CC0E2FF00C05B
:10029600E6FF0A0E046E000E056E56C000F057C04B
:1002A60001F01BDF00C056F001C057F0000E011828
:1002B60002E1000E001801E102D05A06CFD7120063
:1002C6005C6A58C001F0010E006E015004E0003671
:1002D6000090FF0FFBD700C05BF056C0E9FF57C088
:1002E600EAFF0050EE14016E0152010ED8A4000E72
:1002F600006E5A50001A18E05950000804E2E2DE77
:10030600E1DE5906F9D756C0E9FF57C0EAFF5B5050
:10031600EE14016E0152010ED8A4000E006E5A5062
:0E032600001A02E0FF0E5C6E5CC000F01200D8
:100334001FEC02F0546A556A956A836AFF0E936E45
:10034400816AE7DE010E566E010E576E250E586E59
:10035400000E596E31DF020E566E010E576E150EE9
:10036400586E000E596E28DF810E566E0F0E576EB2
:10037400586A010E596E5A6AA4DF0050FF0A3FE121
:10038400800E5518006E800E005C02E1100E545C65
:1003940036E2010E5E6E53DE010E566E010E576E8E
:1003A400350E586E000E596E07DF020E566E010EA2
:1003B400576E410E586E000E596EFEDE936A811E12
:1003C40054C056F055C057F057325632579E57BC5A
:1003D400578E57AE03D002E3564A572A4E0E586E34
:1003E400000E596E26DF0D0E566E010E576E4E0E20
:1003F400586E000E596EE0DE544A552AC1D7B4D760
:02040400FFD720
:10043E0010EE15F0380E006E010E016E060EF66E01
:0E044E00040EF76E000EF86ED6EC00F01200F1
:10040600417065727465206230206F75206231001C
:1004160053656A612062656D2076696E646F21009E
:0C04260076657A6573204C4544323A003C
:0C04320076657A6573204C4544313A0031
:020000040030CA
:0E000000000C1F1EFF8181FF0FC00FE00F409C
:00000001FF
