:10000000FFEF00F00000000000EF00F00000000033
:0A0010000000000000000000F3D71C
:10001C000F0E0C6E470E0D6E0D2EFED70C2EFCD750
:06002C00000000001200BC
:06003200000000001200B6
:0A003800210E0D6E0D2EFED71200F2
:100042001CBE02D0839E01D0838E1CBC02D0839C36
:1000520001D0838C1CBA02D0839A01D0838A1CB847
:1000620002D0839801D0838815B002D0848401D055
:1000720084948482DDDF84921CB602D0839E01D0F8
:10008200838E1CB402D0839C01D0838C1CB202D01C
:10009200839A01D0838A1CB002D0839801D08388CE
:1000A20015B002D0848401D084948482C1DF84920A
:0C00B20015A002D0B2DF01D0BEDF1200AA
:1000BE000FD0800E196E19D0C00E196E16D0940E78
:1000CE00196E13D0D40E196E10D0800E196E0DD07D
:1000DE001950010AEEE01950020AEEE01950030A17
:1000EE00EEE01950040AEEE0F0D71A04006E195033
:1000FE00002600C019F0158000C01CF09BDF159083
:0A010E001BC01CF097DF15801200E3
:0C011800159019C01CF091DF158012003A
:10012400969296949598959A959C959E849284948B
:10013400839E839C839A83986FDF6EDF6DDF838A4F
:100144008388848274DF849267DF848270DF849280
:1001540063DF84826CDF84925FDF8398848267DF4D
:1001640084925ADF848263DF8492839A838E8482AA
:100174005EDF849251DF839E8388848258DF849279
:100184008398848254DF849247DF848250DF849290
:10019400838884824CDF84923FDF8398848247DFA4
:1001A4008492838E838C838A8388848240DF8492C2
:0601B40033DF158012008C
:1001BA00400E1C6E41DF186A1850070811E30C0E36
:1001CA001824F66E020EF76E000EF722000EF86E75
:1001DA00000EF8220900F5CF19F099DF182AECD79A
:1001EA00020E1C6E29DF16C019F017C01AF01B6A1E
:0401FA0061DF1200AF
:0E01FE0092DF010E166E010E176ED8DFFFD7CE
:08020C000000040606150E00B7
:020000040030CA
:0E000000000C1F1EFF8381FF0FC00FE00F409A
:00000001FF
