:1000000095EF01F00000000000EF00F0000000009C
:0A0010000000000000000000F3D71C
:0E001C00030E0D6E0D2EFED700000000120028
:10002A00020E0C6EC80E0D6E0D2EFED70C2EFCD7CE
:02003A001200B2
:02003C001200B0
:10003E00000162BF02D0839E01D0838E62BD02D0CA
:10004E00839C01D0838C62BB02D0839A01D0838AB9
:10005E0062B902D0839801D0838851B002D08484D3
:10006E0001D084948482E3DF849262B702D0839EAF
:10007E0001D0838E62B502D0839C01D0838C62B393
:10008E0002D0839A01D0838A62B102D0839801D0C4
:10009E00838851B002D0848401D084948482C7DFD7
:0E00AE00849251A002D0BADF01D0B1DF12005F
:0C00BC00519061C062F0BDDF5180120065
:0A00C800290E0D6E0D2EFED712005A
:1000D200086A096A100E0C6E01340836093604509B
:1000E200085E0550D8A0053C095ED8B007D0045080
:1000F20008260550D8B0053C0926D89000360136AE
:060102000C2EEAD71200EA
:10010800969296949598959A959C959E84928494A7
:10011800839E839C839A839884DF83DF82DF838A2C
:100128008388848287DF84927CDF848283DF849261
:1001380078DF84827FDF849274DF839884827ADF19
:1001480084926FDF848276DF8492839A838E84829E
:1001580071DF849266DF839E838884826BDF84925A
:100168008398848267DF84925CDF848263DF849271
:10017800838884825FDF849254DF839884825ADF85
:100188008492838E838C838A8388848253DF8492CB
:0601980048DF5180120057
:10019E000900F5CFE6FF0006FBE10106F9E11200CA
:1001AE000FD0800E5A6E19D0C00E5A6E16D0940E05
:1001BE005A6E13D0D40E5A6E10D0800E5A6E0DD0C9
:1001CE005A50010AEEE05A50020AEEE05A50030A63
:1001DE00EEE05A50040AEEE0F0D75B04006E5A507F
:1001EE00002600C05AF000C062F022DF51905E6A15
:1001FE005E505C24E96E000E5D20EA6EEE520BE05E
:10020E005E505C24E96E000E5D20EA6EEECF61F06A
:0A021E004EDF5E2AEDD7518012007A
:100228005E6A050E5E5C0AE25E505C24E16E000EBA
:100238005D20E26E200EE66E5E2AF3D75E505C24E7
:10024800E16E000E5D20E26EE66A5E065E505C249A
:100258005F6E000E5D200001606F0A0E046E000ED6
:10026800056E5AC000F05BC001F02FDF08C000F037
:1002780009C001F0300E00265FC0E1FF60C0E2FF58
:1002880000C0E6FF0A0E046E000E056E5AC000F0AC
:100298005BC001F01ADF00C05AF001C05BF0000E2D
:1002A800011802E1000E001801E102D05E06CED767
:0202B800120032
:1002BA000001606B5CC001F0010E006E015004E0A9
:1002CA0000360090FF0FFBD700C05FF05AC0E9FF6D
:1002DA005BC0EAFF0050EE14016E0152010ED8A471
:1002EA00000E006E5E50001A18E05D50000804E22D
:1002FA00E6DEE5DE5D06F9D75AC0E9FF5BC0EAFF34
:10030A005F50EE14016E0152010ED8A4000E006E69
:10031A005E50001A02E0FF0E606F60C000F012002B
:10032A0046EC02F0010E586E000E596EFF0E936EE7
:10033A00C20ED76EF70ED66E860ED56EE0DE0C0EA6
:10034A000001626F77DE010E5A6E010E5B6E2D0E92
:10035A005C6E000E5D6E26DF020E5A6E010E5B6E3B
:10036A003D0E5C6E000E5D6E1DDF810E5A6E0F0E25
:10037A005B6E5C6A010E5D6E5E6A9ADF0050FF0A70
:10038A0060E1F294936A816A010E626F53DE010E94
:10039A005A6E010E5B6E150E5C6E000E5D6E02DF0C
:1003AA00020E5A6E010E5B6E210E5C6E000E5D6EC1
:1003BA00F9DE956AFF0E836E800E5918006E800E64
:1003CA00005C02E10F0E585C3CE2010E5A6E0D0E03
:1003DA005B6E4F0E5C6E000E5D6EE4DE020E5A6EB0
:1003EA000D0E5B6E4D0E5C6E000E5D6EDBDEF2A4D2
:1003FA0027D0811E831EF294C20ED76EF70ED66ED8
:10040A00584A592A58C05AF059C05BF05B325A32DE
:10041A005B9E5BBC5B8E5BAE03D002E35A4A5B2AEF
:10042A00520E5C6E000E5D6EFADE010E5A6E0C0EF6
:10043A005B6E520E5C6E000E5D6EB4DEFF0E836E56
:06044A00BBD793D7FFD7DA
:10048C0010EE15F03C0E006E010E016E500EF66E65
:0E049C00040EF76E000EF86ECFEC00F01200AA
:0C04500076657A6573204C4544323A0012
:0C045C0076657A6573204C4544313A0007
:1004680053656A612062656D2076696E646F21004C
:10047800417065727465206230206F7520623100AA
:02048800310041
:02048A00300040
:020000040030CA
:0E000000000C1F1EFF8181FF0FC00FE00F409C
:00000001FF
