:020000040000FA
:0400000015EF00F008
:060008002A82B8ED06F0AB
:100018002A80E0CF01F0F29EF28E01C0E0FF2A9024
:0600280010002BEF07F0B1
:1008000000436F6E762E20412F442065204C4344D8
:100810000054656D702E3A200000000E246E000E0C
:10082000256EFC0ED316010E926E030E936E000E13
:10083000946E000E956E000E966E000E806E000E89
:10084000816E000E826E000E836E000E846ED58E59
:10085000D58CD59AD596D550F80B0609D56E000ED5
:10086000D76ED90ED66ED08EF28AF184F28EF28CCB
:1008700008EC06F019EC07F00C0EEDEC06F0275032
:1008800009E1F00E265CD8A048EF04F04AEF04F02E
:10089000ACEF04F081B64FEF04F052EF04F0010E1C
:1008A00053EF04F0000EFF0A1A6E1A461A461A4653
:1008B00081501A18F70B1A18816E000E276E000E61
:1008C000266E000E82EC05F002C009F003C00AF0AB
:1008D000000E0C6E0A0E0B6E06EC07F0D8900A3272
:1008E0000932D8900A320932D8900A3209326A0E97
:1008F0000924226EFF0E0A20236E1C0E126E000EBB
:10090000136E22C014F023C015F0000E176E0A0EED
:10091000166E96EC06F0800EEDEC06F0010E056EFC
:10092000080E066E6EEC06F0C00EEDEC06F0110E31
:10093000056E080E066E6EEC06F01C50D4EC06F048
:100940001D50D4EC06F02C0ED4EC06F01E50D4EC66
:1009500006F0430ED4EC06F02850D8A4B2EF04F011
:10096000B4EF04F0C5EF04F081B0B9EF04F0BBEFD1
:1009700004F0C5EF04F02450D8A4C1EF04F0C3EF95
:1009800004F0C5EF04F0010E286E050E2964CBEFCC
:1009900004F0CDEF04F0DAEF04F081B0D2EF04F010
:1009A000D4EF04F0DAEF04F0010E246E000E286E8E
:1009B000000E296E2450D8B4E0EF04F0E2EF04F00A
:1009C000F6EF04F081A0E7EF04F0E9EF04F0F6EFB2
:1009D00004F0252A020E2564F0EF04F0F2EF04F093
:1009E000F4EF04F0000E256E000E246E2550D8A4FE
:1009F000FCEF04F0FEEF04F000EF05F08194829428
:100A00002504D8A406EF05F008EF05F012EF05F075
:100A100081A602D0818401D0819481A602D08284F3
:100A200001D08294020E2518D8A419EF05F01BEF0F
:100A300005F03FEF04F0818482843FEF04F015EF6E
:100A400000F00BC00FF00CC010F00FC002F010C08F
:100A500003F00DC004F00EC005F0CEEC05F002C0AE
:100A60000FF003C010F0094A0A2A0F501010D8A442
:100A70003CEF05F03EEF05F025EF05F009C0D9FF8A
:100A80000AC0DAFF000EDF6E0906D8A00A060BC006
:100A900002F00CC003F00DC004F00EC005F03CECF9
:100AA00006F00250116E0BC002F00CC003F00DC036
:100AB00004F00EC005F0CEEC05F002C00BF003C050
:100AC0000CF0090E116467EF05F069EF05F06BEFAC
:100AD00005F0070E1126300E112609C0D9FF0AC0F5
:100AE000DAFF11C0DFFF0906D8A00A060B500C1070
:100AF000D8A47DEF05F07FEF05F047EF05F0094A38
:100B00000A2A1200086E95EF05F0C30EC216AEEF6A
:100B100005F0C250C30B0409C26EAEEF05F0C2501F
:100B2000C30B0809C26EAEEF05F00850046E056AEB
:100B30000550000AD8B49FEF05F0AEEF05F0045061
:100B4000000AD8B485EF05F0010AD8B489EF05F0A2
:100B5000030AD8B48FEF05F0AEEF05F0C282C2B23F
:100B6000B4EF05F0B6EF05F0AFEF05F0C3CF04F03A
:100B7000060E056ED8900432052EBAEF05F004502B
:100B8000C4CF06F0076AD89006360736D8900636E6
:100B900007360610026E0750036E1200000E076E35
:100BA000000E066E04500510D8B4D9EF05F0DBEF47
:100BB00005F003EF06F0010E086EE3EF05F0D890A4
:100BC00004360536082A05AEE8EF05F0EAEF05F031
:100BD000DFEF05F0D890063607360450025C05506A
:100BE0000358D8A0F6EF05F0F8EF05F0FDEF05F09B
:100BF0000450025E0550035A0680D8900532043234
:100C0000082EEAEF05F006C002F007C003F012005C
:100C100084928490680E056EE40EE82EFED7052EB1
:100C2000FCD700D08482380EEDEC06F01A0E056E6B
:100C3000F80EE82EFED7052EFCD700D0380EEDECCE
:100C400006F0060E056E300EE82EFED7052EFCD7F8
:100C500000D0380EEDEC06F0080EEDEC06F00F0EAD
:100C6000EDEC06F0010EEDEC06F0380EEDEC06F0C2
:100C7000800EEDEC06F0120004500510D8B443EFDE
:100C800006F045EF06F069EF06F0010E066E4DEF37
:100C900006F0D89004360536062A05AE52EF06F067
:100CA00054EF06F049EF06F00450025C055003587B
:100CB000D8A05DEF06F05FEF06F063EF06F004509A
:100CC000025E0550035AD89005320432062E54EFC6
:100CD00006F002C002F003C003F01200000E096E1D
:100CE00081EF06F009500524076E000E0620086EFD
:100CF00007C0F6FF08C0F7FF0800F550D4EC06F077
:100D0000092A09500524076E000E0620086E07C048
:100D1000F6FF08C0F7FF0800F5500009D8A493EFCC
:100D200006F095EF06F072EF06F0120015BE9DEF8B
:100D300006F09BEF06F0A9EF06F012C0D9FF13C032
:100D4000DAFF2D0EDF6E124A132A146C151ED8B06E
:100D5000152A12C009F013C00AF014C00BF015C018
:100D60000CF016C00DF017C00EF021EC05F01200CB
:100D70000600F29EF2A4BFEF06F0C1EF06F0D1EF3D
:100D800006F02850D8B4C7EF06F0C9EF06F0CAEF56
:100D900006F0292A264A272AF294000ED76ED90E89
:100DA000D66EF28E2A921100046E8482045036ECC4
:100DB00007F08480100E036E940EE82EFED7032EEB
:100DC000FCD700D08492100E036E940EE82EFED74E
:100DD000032EFCD700D084821200046E848204505B
:100DE00036EC07F08490100E036E940EE82EFED7BA
:100DF000032EFCD700D08492100E036E940EE82EC2
:100E0000FED7032EFCD700D08482120009500B02BB
:100E1000F3CF0DF0F4CF0EF009500C02F3500E2674
:100E20000A500B02F3500E260DC009F00EC00AF056
:100E30001200010EC26EC198C19AC150F00B0E098A
:100E4000C16EC09EC050F80B0509C06EC050C70BE4
:100E50001009C06E1200296A286A276A266A2A9039
:100E60002A92000EF86E00010DEF04F0026E02C02F
:040E700083FF1200EA
:020000040020DA
:08000000FFFFFFFFFFFFFFFF00
:020000040030CA
:0E000000180E1E1EFF8181FF0FC00FE00F4083
:00000001FF
