:100000000EEF00F00000000000EF00F00000000024
:0A0010000000000000000000F3D71C
:10001C00156A166A800E176E000E186E400E196E59
:10002C00000E1A6E956A800E006E800E1618005C1B
:10003C0002E1155008081FE317C083FF060E0B6E74
:10004C00130E0C6EAD0E0D6E0D2EFED70C2EFCD7B6
:10005C000B2EFAD700000000195017261A50182240
:10006C001A3219321A9E1ABC1A8E1AAE03D002E337
:10007C00194A1A2AD8D7156A166A800E176E000EFE
:0E008C00186E400E196E000E1A6ECDD7FFD7FB
:020000040030CA
:0E000000000C1F1EFF8381FF0FC00FE00F409A
:00000001FF
