:100000000EEF00F00000000000EF00F00000000024
:0A0010000000000000000000F3D71C
:10001C00156A166A010E176E000E186E956A800E20
:10002C001618006E800E005C02E1080E155C16E2DC
:10003C0017C083FF173617901836154A162A060E66
:10004C000B6E130E0C6EAD0E0D6E0D2EFED70C2E10
:10005C00FCD70B2EFAD700000000E1D7010E156E6D
:10006C00000E166E800E1618006E800E005C02E1FB
:10007C00090E155C1DE217C083FF18321732189E4B
:10008C0018BC188E18AE03D002E3174A182A060EB5
:10009C000B6E130E0C6EAD0E0D6E0D2EFED70C2EC0
:1000AC00FCD70B2EFAD700000000154A162ADAD717
:0400BC00B6D7FFD7DD
:020000040030CA
:0E000000000C1F1EFF8381FF0FC00FE00F409A
:00000001FF
