:100000000EEF00F00000000000EF00F00000000024
:0A0010000000000000000000F3D71C
:10001C00800E156E000E166E800E176E000E186E8A
:10002C00956A15C083FF17C000F018C001F00132AB
:10003C000032019E01BC018E01AE03D002E3004AE6
:10004C00012A005015260150162200C017F001C0DD
:10005C0018F0060E0B6E130E0C6EAD0E0D6E0D2EF3
:10006C00FED70C2EFCD70B2EFAD700000000D9D7E8
:02007C00FFD7AC
:020000040030CA
:0E000000000C1F1EFF8181FF0FC00FE00F409C
:00000001FF
