:100000007DEF01F00000000000EF00F000000000B4
:0A0010000000000000000000F3D71C
:10001C000F0E0C6E470E0D6E0D2EFED70C2EFCD750
:06002C00000000001200BC
:06003200000000001200B6
:0A003800210E0D6E0D2EFED71200F2
:1000420029BE02D0839E01D0838E29BC02D0839C1C
:1000520001D0838C29BA02D0839A01D0838A29B82D
:1000620002D0839801D0838816B002D0848401D054
:1000720084948482DDDF849229B602D0839E01D0EB
:10008200838E29B402D0839C01D0838C29B202D002
:10009200839A01D0838A29B002D0839801D08388C1
:1000A20016B002D0848401D084948482C1DF849209
:0C00B20016A002D0B2DF01D0BEDF1200A9
:0C00BE00169028C029F0BEDF168012004A
:0C00CA000E0E0D6E0D2EFED70000120071
:1000D600086A096A100E0C6E013408360936045097
:1000E600085E0550D8A0053C095ED8B007D004507C
:1000F60008260550D8B0053C0926D89000360136AA
:060106000C2EEAD71200E6
:10010C00969296949598959A959C959E84928494A3
:10011C00839E839C839A83987BDF7ADF79DF838A43
:10012C008388848280DF849273DF84827CDF849274
:10013C006FDF848278DF84926BDF8398848273DF35
:10014C00849266DF84826FDF8492839A838E8482AA
:10015C006ADF84925DDF839E8388848264DF84926D
:10016C008398848260DF849253DF84825CDF849284
:10017C008388848258DF84924BDF8398848253DF98
:10018C008492838E838C838A838884824CDF8492CE
:06019C003FDF1680120097
:1001A200C26A151C006E0050C116070EC012C08E26
:1001B20021C000F000360090003600900050C212BC
:1001C200C28082DFC282C2A201D0FDD7C4CF01F0B9
:0E01D200006AC3500012000E0112C29012000B
:1001E0000900F5CFE6FF0006FBE10106F9E1120088
:1001F0000FD0800E216E19D0C00E216E16D0940E35
:10020000216E13D0D40E216E10D0800E216E0DD031
:100210002150010AEEE02150020AEEE02150030ACB
:10022000EEE02150040AEEE0F0D72204006E2150E7
:10023000002600C021F000C029F003DF1690256AD7
:1002400025502324E96E000E2420EA6EEE520BE0C6
:1002500025502324E96E000E2420EA6EEECF28F00C
:0A0260002EDF252AEDD716801200CC
:10026A00256A050E255C0AE225502324E16E000E5C
:10027A002420E26E200EE66E252AF3D72550232489
:10028A00E16E000E2420E26EE66A2506255023243C
:10029A00266E000E2420276E0A0E046E000E056ECE
:1002AA0021C000F022C001F011DF08C000F009C02F
:1002BA0001F0300E002626C0E1FF27C0E2FF00C091
:1002CA00E6FF0A0E046E000E056E21C000F022C081
:1002DA0001F0FCDE00C021F001C022F0000E01187E
:1002EA0002E1000E001801E102D02506CFD7120064
:1002FA00B0EC01F006DF0D0EC16E020E216E4CDF6E
:10030A0000C01FF001C020F000C002F001C003F0DD
:10031A0003320232039E03BC038E03AE03D002E310
:10032A00024A032A02C017F003C018F002C021F0E3
:10033A0003C022F0190E236E000E246E91DF010E07
:10034A00216E010E226E190E236E000E246E4BDFF3
:04035A00D4D7FFD71E
:1003600010EE15F0010E006E010E016E5E0EF66EBF
:0E037000030EF76E000EF86EF0EC00F01200B7
:01035E00306E
:020000040030CA
:0E000000000C1F1EFF8381FF0FC00FE00F409A
:00000001FF
